:020000040800F2
:1000000008590020DD010008291700087D160008A6
:10001000D9160008550D0008352A00080000000018
:100020000000000000000000000000004501000882
:10003000B91300080000000089010008E11F000852
:10004000F7010008F7010008F7010008F7010008B0
:10005000F7010008F7010008F7010008F7010008A0
:10006000F7010008F7010008F7010008F701000890
:10007000F7010008F7010008F7010008F701000880
:10008000F7010008F7010008F7010008F701000870
:100090007D280008F7010008F7010008F7010008B3
:1000A000F7010008F7010008F7010008F701000850
:1000B000F7010008F701000861200008F7010008B7
:1000C000F7010008F7010008F7010008F701000830
:1000D000F7010008C5240008B9250008F701000849
:1000E000F7010008F7010008F7010008F701000810
:1000F000F7010008F7010008F7010008F701000800
:10010000F7010008F7010008F7010008F7010008EF
:10011000F701000855240008F7010008F70100085E
:10012000F7010008F7010008F7010008F7010008CF
:10013000DFF80CD000F096FC00480047DD320008E4
:1001400008590020224B19680868B0E8F00F80F3C6
:100150000988BFF36F8F4FF0000080F311884EF0D5
:100160000D0E70470000000006480068006880F32C
:10017000088862B661B6BFF34F8FBFF36F8F00DFA1
:1001800000BF00BF08ED00E0EFF30980BFF36F8F01
:100190000F4B1A6820E9F00F106008B54FF05000BF
:1001A00080F31188BFF34F8FBFF36F8F05F0B2F864
:1001B0004FF0000080F31188BDE808401968086816
:1001C000B0E8F00F80F30988BFF36F8F704700BF6E
:1001D000BC000020EFF30580704700000648804710
:1001E00006480047FEE7FEE7FEE7FEE7FEE7FEE71C
:1001F000FEE7FEE7FEE7FEE7012000083101000808
:1002000040EA01039B0703D009E008C9121F08C098
:10021000042AFAD203E011F8013B00F8013B521E18
:10022000F9D27047D2B201E000F8012B491EFBD28F
:1002300070470022F6E710B513460A4604461946F1
:10024000FFF7F0FF204610BDF0B480EA0102D40FA2
:100250004200B2EB410F02D20246084611464A0064
:1002600042D0C30DDDB2C1F3C752AD1A202D35DA2D
:10027000C1F3160141F4000204B15242C5F1200657
:1002800002FA06F12A411044B3EBD05F23D0C4B187
:10029000012DA0EBC35009DCF0BC4FF0004202EA94
:1002A000C352DBB200F5000000F051BB400000F18A
:1002B000807000EBC350A0F1807040EAD17049001B
:1002C00009E0490841EAC071A0EBC35000F5000005
:1002D000400800EBC350F0BC00F030BB614201228B
:1002E00002EB4101001BF6E7F0BC704781F00041D2
:1002F000AAE780F00040A7E780EA010210B502F00B
:100300000043400022D04A001FD0010E01EB1261D1
:10031000C0F35600C2F3560240F4000042F400025B
:10032000A0FB022000047F39140400D0401C50EAD6
:10033000124001D44000491EC2B20C0604EBD0109A
:10034000401C4008802A02D003E0002010BD20F0AD
:100350000100002900DA0020184310BD30B480EA03
:10036000010202F0004530F0004221F0004013D0BD
:1003700090B1C30DD40DC2F31601C0F31600E41AF8
:1003800041F4000140F400027D34914201D3641C29
:1003900000E04900002C02DA30BC002070474FF426
:1003A00000000023914201D3891A034340084FEA19
:1003B0004101F7D151B1914202D14FF0004105E026
:1003C00002D24FF0010101E06FF0010103EBC450D4
:1003D000284430BC00F0B2BA2DE9FE4F804681EAD5
:1003E0000300C00F0C46009021F0004123F00045AF
:1003F000B8EB0200A94105D24046214690461C4672
:100400000B46024623F00040104347D0270DC7F3A8
:100410000A00C3F30A510290401A019040286BDA97
:10042000C3F3130040F4801B0098924620B10023D0
:10043000D2EB030A63EB0B0B01985946C0F1400263
:10044000504600F04AFA06460D4650465946019A73
:1004500000F062FA10EB08006141002487EA1152B3
:1004600084EAE7731A4340D0009A62B3019A012AE2
:100470004FEA075215DC001B61EB02014FF000420E
:1004800002EA0752CDE90042001C41F580113246D4
:100490002B4600F099FA03B0BDE8F08F40462146A4
:1004A000F9E7001B61EB0201001C41F58013001805
:1004B0005B412018A2F5001747EB030140EAD57015
:1004C000B6196D4111E06D084FEA360645EAC07570
:1004D0004FEA0752001B61EB0201001C41F580113D
:1004E00049084FEA30000019514132462B4603B00B
:1004F000BDE8F04F00F059BA0098012240000023F7
:10050000D0EB020263EBE073009821464FEAE074FF
:10051000B8EB000061EB0401E9E783F000435BE71F
:1005200081F0004158E72DE9FE4F81EA030404F011
:10053000004421F0004100944FF0000B23F00043F1
:1005400050EA01045ED052EA03045BD0C3F30A54BC
:10055000C1F30A552C44A4F2F3340194A0FB0254D5
:10056000C1F3130141F48011C3F3130343F4801367
:1005700001FB024400FB034E840A970A44EA8154BB
:1005800047EA8357A4FB076802958D0A05FB078598
:100590004FEA932C04FB0C542705029D4FEA0658A2
:1005A00047EA1637B5EB08056EEB070C870E920E7F
:1005B00047EA811742EA8312A7FB0201B6EB0B015F
:1005C00064EB00042B0D43EA0C335E1844EB1C5023
:1005D000DA465146E7FB0201C5F313044FEA0B3339
:1005E00043EA14534FEA0432019C43EA0603A4F1A0
:1005F0000C040294009CCDE900B400F0E5F903B0CE
:10060000BDE8F08F00200146F9E72DE9F04D81EAC1
:10061000030404F0004B21F0004514464FF0000A9B
:1006200023F0004150EA050220D054EA01021DD017
:10063000C5F30A570246C5F31303C1F31300C1F310
:100640000A5640F4801543F48013A7EB0608101BEC
:10065000D64608F2FD3873EB050002D308F1010815
:1006600001E092185B41B8F1000F03DA0020014667
:10067000BDE8F08D00204FF48011064684460EE060
:10068000171B73EB050705D3121B63EB050306432A
:100690004CEA010C49084FEA300092185B4150EADD
:1006A0000107EDD152EA030012D082EA040083EA86
:1006B0000501084305D0101BAB4106D201220023DF
:1006C00006E000224FF0004302E06FF001025310F9
:1006D0001AEB06004CEB085110EB0A0041EB0B0142
:1006E000BDE8F04D00F061B9C10F80EAE070084448
:1006F000CA079623002100F02AB90EB5C10F80EA7F
:10070000E0700844CA07002140F233438DE80E0030
:100710000A460B4600F058F903B000BD0EB540F292
:10072000334102910021CDE900110A460B4600F049
:100730004BF903B000BD00F0004220F00040C10DB5
:10074000C0F3160040F400007F2901DA0020704752
:10075000962903DCC1F19601C84001E09639884032
:10076000002AF4D04042704770B5C1F30A5201F03C
:1007700000450024C1F3130140F2FF3341F480111E
:100780009A4201DA002070BD40F233439A42A2F24D
:10079000334203DC524200F0AFF800E090402C43BB
:1007A000F1D0404270BD00F0004230F000400AD06D
:1007B000C10D01F56071C0F3160042EA0151C20893
:1007C00040071143704700200146704730B5041EB2
:1007D00071F1000404DB4FF00044404264EB01017E
:1007E000141E73F1000405DB1C464FF00043524217
:1007F00063EB04038B4208BF824230BD30B5041E58
:1008000071F1000404DB4FF00044404264EB01014D
:10081000141E73F1000405DB1C464FF000435242E6
:1008200063EB0403994208BF904230BD01F00043DE
:1008300030B421F0004150EA010206D00A0DA2F5C1
:100840006072C1F31301002A02DC30BC0020704743
:10085000440F44EAC104C100E01830BC00EBC250B0
:1008600000F06CB8002801DBC0F10040002901DB7A
:10087000C1F10041814270472DE9F05F054600203B
:1008800092469B4688460646814640241BE0284601
:1008900041464746224600F02FF853465A46C01AB2
:1008A000914110D311461846224600F016F82D1A31
:1008B00067EB01084F4622460120002100F00DF8A9
:1008C00017EB00094E41201EA4F10104DFDC48466D
:1008D00031462A464346BDE8F09F202A04DB203AF1
:1008E00000FA02F1002070479140C2F1200320FA83
:1008F00003F3194390407047202A04DB203A21FA81
:1009000002F00021704721FA02F3D040C2F1200228
:100910009140084319467047202A06DBCB17203A3E
:1009200041FA02F043EAE07306E041FA02F3D040F4
:10093000C2F1200291400843194670470029A8BF20
:100940007047401C490008BF20F00100704710B4F8
:10095000B0FA80FC00FA0CF050EA010404BF10BCAD
:10096000704749B1CCF1200421FA04F411FA0CF1DA
:1009700018BF012121430843A3EB0C01CB1D4FEA13
:1009800000614FEA102042BF002010BC704700EB0E
:10099000C35010440029A4BF10BC7047401C49003C
:1009A00008BF20F0010010BC704710B5141E73F191
:1009B000000408DA401C41F1000192185B411A431F
:1009C00001D120F0010010BD2DE9F04D92469B466B
:1009D00011B1B1FA81F202E0B0FA80F22032904611
:1009E000FFF77BFF04460F4640EA0A0041EA0B018D
:1009F00053465A46084313D0114653EA010019D012
:100A0000C8F140025046FFF777FF05460E465046B4
:100A100059464246FFF761FF084305D0012004E034
:100A200020463946BDE8F08D0020054346EAE076D1
:100A30002C4337430A986305E40AA0EB0800002220
:100A4000FD0A44EA47540A3002D500200146E9E78E
:100A5000010510196941DDE9084500196941BDE842
:100A6000F04DA2E7064C074D06E0E06840F00103B8
:100A700094E8070098471034AC42F6D3FFF75CFBCC
:100A8000A0600008C060000821B1826842F0010245
:100A9000826003E0826822F00102826070470000F9
:100AA00010B504461248844208D10121401500F0D7
:100AB000B9FF0021601500F0B5FF17E00D48844232
:100AC00008D10121001500F0ADFF0021201500F034
:100AD000A9FF0BE00848844208D10121C80300F0B7
:100AE000A1FF00214FF4004000F09CFF10BD00006A
:100AF0000024014000280140003C01400146002044
:100B00008A6802F004020AB1012000E00020704768
:100B10000146C86C80B270470246002013680B4043
:100B20000BB1012000E000207047014600208A68D8
:100B300002F008020AB1012000E000207047000026
:100B400030B502460020002350680F4C20400D793C
:100B50000C6844EA05242043506090680B4C204008
:100B6000D1E902542C434D7944EA45042043906076
:100B7000D06A20F470000C7C641EE4B2234340EA87
:100B80000350D06230BD0000FFFEF0FFFDF7F1FF23
:100B9000F0B504460D4600200021092D11DDE06866
:100BA000A5F10A0606EB4607072606FA07F1884371
:100BB000A5F10A0606EB460603FA06F10843E060D3
:100BC0000CE0206905EB4507072606FA07F1884384
:100BD00005EB450603FA06F108432061072A0FDA00
:100BE000606B561E06EB86071F2606FA07F1884340
:100BF000561E06EB860605FA06F10843606322E0FE
:100C00000D2A0FDA206BD61F06EB86071F2606FA81
:100C100007F18843D61F06EB860605FA06F108435E
:100C2000206310E0E06AA2F10D0606EB86071F269E
:100C300006FA07F18843A2F10D0606EB860605FACF
:100C400006F10843E062F0BD816841F0080181606F
:100C5000704721B1826842F4A002826003E082689A
:100C600022F4A00282607047816841F00401816033
:100C70007047000000B587B001214FF4047000F008
:100C8000C1FE4FF4004000F0A1FE1020ADF80400BA
:100C900000208DF8070001A9174800F0CFFB174886
:100CA000FFF7FEFE002002908DF80C008DF80D007D
:100CB0004FF4602004900020059001208DF818006A
:100CC00002A90E48FFF73CFF01210C48FFF7DCFEAC
:100CD0000A48FFF7B9FF00BF0848FFF726FF0028C2
:100CE000FAD10648FFF7C0FF00BF0448FFF706FF30
:100CF0000028FAD107B000BD0010014000240140D7
:100D000010B54FF4407000F057FD02F0CBF803F03F
:100D1000B3FA02F075FA4FF4E13001F0F1FB4FF451
:100D2000E13003F003FE094803F074FEFFF7A2FF71
:100D300002F00AF802E0042000F0D0FC0448006849
:100D40000128F8D10249086010BD0000A08601000A
:100D50001800002000BFFEE700220C4B994202D190
:100D60000023836111E0C1F3130201F000730BB1A2
:100D7000C2600AE001F080630BB1026105E001F09E
:100D800000630BB1826000E0426070477000F03099
:100D900010B50021837A012202FA03F13D4A12685C
:100DA00042F001023B4B1A603A4A1C3212688A43F5
:100DB000384B1C331A60027BCAB9364A0C321268AF
:100DC0008A43344B0C331A604288C38842EA034397
:100DD000304A4032847A42F834300288838842EACA
:100DE00003432C4A4032847A02EBC4025360027BF4
:100DF000012A19D1274A0C3212680A43254B0C33B9
:100E00001A604288038842EA0343224A4032847AC5
:100E100042F83430C288838842EA03431D4A403294
:100E2000847A02EBC4025360C27A3AB9194A121D9D
:100E300012688A43174B1B1D1A6006E0154A121DE3
:100E400012680A43134B1B1D1A60028932B9114AFA
:100E5000143212688A430F4B14331A600289012A34
:100E600006D10C4A143212680A430A4B14331A6032
:100E7000427B012A06D1074A1C3212680A43054BFD
:100E80001C331A60034A126822F00102014B1A60F7
:100E900010BD0000006600401AB143690B43436176
:100EA00002E043698B434361704730B5024600203E
:100EB0000023146824F002041460146844F0010450
:100EC000146000E05B1C546804F001041CB94FF688
:100ED000FF74A342F6D1546804F001040CB9002059
:100EE0006CE08C79012C04D1146844F08004146007
:100EF00003E0146824F080041460CC79012C04D140
:100F0000146844F04004146003E0146824F04004C2
:100F100014600C7A012C04D1146844F0200414608D
:100F200003E0146824F0200414604C7A012C04D1EE
:100F3000146844F01004146003E0146824F01004F2
:100F400014608C7A012C04D1146844F008041460F5
:100F500003E0146824F008041460CC7A012C04D156
:100F6000146844F00404146003E0146824F00404DA
:100F700014608C78A407CD7844EA05640D7944EABE
:100F800005444D7944EA05540D886D1E2C43D46107
:100F9000146824F001041460002300E05B1C546812
:100FA00004F001041CB14FF6FF74A342F6D154685B
:100FB00004F001040CB1002000E0012030BD10B5A8
:100FC00000F5D87303EB01131B6803F004031372DD
:100FD000137A53B900F5D87303EB01131B6840F281
:100FE000FF7404EA5353136009E000F5D87303EB70
:100FF00001131B686FF0604404EAD303536000F5EB
:10100000D87303EB01131B6803F00203537200F55E
:10101000D87303EB01135B6803F00F03937200F5C1
:10102000D87303EB01135B681B0AD37400F5D87304
:1010300003EB01139B68D37200F5D87303EB011324
:101040009B681C0A147300F5D87303EB01139B68AB
:101050001C0C547300F5D87303EB01139B681B0E33
:10106000937300F5D87303EB0113DB68D37300F5BA
:10107000D87303EB0113DB681C0A147400F5D873F2
:1010800003EB0113DB681C0C547400F5D87303EBFD
:101090000113DB681B0E937421B9C36843F020036E
:1010A000C36003E0036943F02003036110BD000047
:1010B0002DE9F04385B006460F46904600244FF0D8
:1010C000FF390025F8B28DF80A0000208DF80800DD
:1010D0008DF80900009605E018F804100DF10B00DA
:1010E0000155641C082CF7DB002469460F4800F00A
:1010F0002FF8814600E06D1C09F0FF010B4800F05D
:10110000BBF818B94FF6FF708542F4DBB5F5803FA8
:1011100007DB07A0009901F08FFC012005B0BDE8B6
:10112000F083052001F0ECFE0020F7E700640040AA
:1011300053656E64204D7367206661696C6421207D
:1011400053746449642069733A2025780D0A0000BD
:1011500010B502460020936803F08063B3F1806FFE
:1011600000D110E0936803F00063B3F1006F01D188
:10117000012008E0936803F08053B3F1805F01D150
:10118000022000E00420042874D002F5C07303EBB1
:1011900000131B6803F0010402F5C07303EB001396
:1011A0001C600B7A7BB94B7A0C8843EA445302F5F6
:1011B000C07404EB00142468234302F5C07404EBEC
:1011C0000014236010E00B7A4C6843EAC4034C7AA5
:1011D000234302F5C07404EB00142468234302F592
:1011E000C07404EB001423608B7A03F00F038B723E
:1011F00002F5C07303EB00135B6823F00F0402F5E4
:10120000C07303EB00135C6002F5C07303EB0013C3
:101210005B688C7A234302F5C07404EB00146360AE
:101220008B7B1C064B7B44EA03440B7B44EA032381
:10123000CC7A234302F5C07404EB0014A3608B7CCA
:101240001C064B7C44EA03440B7C44EA0323CC7B1E
:10125000234302F5C07404EB0014E36002F5C0738D
:1012600003EB00131B6843F0010402F5C07303EBAA
:1012700000131C6010BD000010B50246002321B110
:10128000012907D002290FD109E090681D4C00EA1E
:1012900004030BE090681C4C00EA040306E090682D
:1012A0001A4C00EA040301E0002300BF00BF184C01
:1012B000181BA34216D007DC83B16FF0806018447E
:1012C00070B1022818D111E0B0F5007F10D0114C98
:1012D000204448B1B0F5003F0ED10BE002230DE0F1
:1012E00000230BE0002309E0002307E0012305E0D1
:1012F000012303E0012301E0002300BF00BFD8B2B7
:1013000010BD0000030000040003000800000310EB
:10131000000100080001FFF710B50E480088C0B1B9
:101320000C4801880CA001F087FB13A001F084FB9E
:101330000020154908600420144908700120144950
:101340000860042000F026F800200249088000F020
:1013500059FD10BD32000020654D6F746F725F45FE
:1013600072726F722773206572726F722069733A9E
:101370002025640D0A000000636C656172206572AF
:10138000726F72200D0A000018000020300000204B
:10139000240000201CB5044605A103C9CDE90001C5
:1013A00004F5C0606A460821FFF782FE1CBD0000FC
:1013B0002B40600080000000704738B504460020D4
:1013C0008DF800008DF8010004F500706A460221D6
:1013D000FFF76EFE06208DF8000000208DF801005A
:1013E00004F500706A460221FFF762FE07208DF8BF
:1013F000000000208DF8010004F500706A4602210B
:10140000FFF756FE052001F07BFD0F208DF8000050
:1014100000208DF8010004F500706A460221FFF7F4
:1014200047FE0F208DF8000000208DF8010004F524
:1014300000706A460221FFF73BFE38BD2DE9F041FE
:10144000024600250026002000230024002791F8F2
:1014500003C00CF00F0591F803C00CF0100CBCF1A8
:10146000000F03D091F802C04CEA050591F800C0C6
:10147000BCF1000F31D0146800202BE04FF0010CBC
:101480000CFA00F3B1F800C00CEA03069E4220D12A
:1014900083004FF00F0C0CFA03F7BC4305FA03FC72
:1014A0004CEA040491F803C0BCF1280F06D14FF0B8
:1014B000010C0CFA00FCC2F814C00AE091F803C059
:1014C000BCF1480F05D14FF0010C0CFA00FCC2F83A
:1014D00010C0401C0828D1D31460B1F800C0BCF182
:1014E000FF0F34DD546800202EE000F1080C4FF0AF
:1014F000010808FA0CF3B1F800C00CEA03069E429A
:1015000021D183004FF00F0C0CFA03F7BC4305FA0E
:1015100003FC4CEA040491F803C0BCF1280F05D188
:1015200000F1080C08FA0CF8C2F8148091F803C016
:10153000BCF1480F07D100F1080C4FF0010808FA80
:101540000CF8C2F81080401C0828CED35460BDE8C7
:10155000F0810000F0B50A46002300240021002598
:1015600000F00046B6F1004F02D11D4EF16901E0D6
:101570001B4E7168C0F3034583B200F44016B6F504
:10158000401F08D121F07061154E766826F0706614
:10159000134F7E6012E000F48016B6F5801F06D16E
:1015A000032606FA05F4A14341F0706106E0460DFA
:1015B000360103FA06F6B14341F0706122B1460DDF
:1015C000360103FA06F6314300F00046B6F1004F4B
:1015D00002D1034EF16101E0014E7160F0BD0000E7
:1015E000000001400161704710B504460723012245
:1015F00021460948FFF7CCFA01210748FFF729FBEC
:1016000000BF02210448FFF787FA0028F9D00248FA
:10161000FFF77EFA10BD0000002401402DE9F04FD5
:1016200085B0002004900E20FFF7DEFF0190FFF749
:1016300075F84FF066320E4BCDE90201FEF773FFED
:10164000804600220B4BFEF76EFF064600224FF04D
:101650008043FEF7DAFF04460022074BFEF7D5FF72
:101660008246FFF7E3F80490049805B0BDE8F08FD8
:1016700066660A40008047400000B04000BFFEE7B9
:101680001048006896281CDD0F480078042811D007
:101690000E480068032805DB0C4800680C490968FF
:1016A000884207D1042008490870002009490860D1
:1016B000064908600020034908600448006804499E
:1016C000086070471400002030000020280000202F
:1016D0002C0000201800002000BFFEE710B50446D3
:1016E000204600F019FA204600F08AFA204600F061
:1016F00008FB204600F0EBFC204600F088FD204669
:1017000000F025FE204600F061F822460121204627
:1017100000F00BF82046FFF750FE204600F026FCB4
:10172000C82001F0EDFB10BD7047F8B506460C4629
:101730001546002000908DF800408DF801506A4653
:101740000221FFF7B5FCF8BD70B5002100230F2280
:10175000C47804B3154C246804F4E064C4F5E06470
:10176000210AC1F10403CA40447804FA03F18478E1
:101770001440214309010E4C0678A155047804F069
:101780001F050124AC4005786D11AD0005F1E02581
:10179000C5F8004109E0047804F01F050124AC40BD
:1017A000044D0678761145F8264070BD0CED00E03A
:1017B00000E400E080E100E002490143024A1160D8
:1017C000704700000000FA050CED00E01CB504466F
:1017D00071A103C9CDE9000104F5C0606A46082182
:1017E000FFF766FC052001F08BFB2B208DF8000035
:1017F0000F208DF8010020208DF8020000208DF8C8
:1018000003008DF804008DF805008DF806008DF8B2
:10181000070004F5C0606A460821FFF749FC05206F
:1018200001F06EFB23208DF800000D208DF80100E3
:1018300020208DF8020001208DF8030000208DF893
:1018400004008DF805008DF806008DF8070004F5FA
:10185000C0606A460821FFF72BFC052001F050FB11
:1018600023208DF800000D208DF8010020208DF838
:10187000020002208DF8030000208DF804008DF88E
:1018800005008DF806008DF8070004F5C0606A4673
:101890000821FFF70DFC052001F032FB23208DF815
:1018A000000083208DF8010060208DF802000120E7
:1018B0008DF80300C8208DF8040000208DF8050085
:1018C0008DF806008DF8070004F5C0606A4608210F
:1018D000FFF7EEFB052001F013FB23208DF800003D
:1018E00083208DF8010060208DF8020002208DF821
:1018F0000300C8208DF8040000208DF805008DF845
:1019000006008DF8070004F5C0606A460821FFF75D
:10191000CFFB052001F0F4FA23208DF8000084208D
:101920008DF8010060208DF8020001208DF8030081
:1019300064208DF8040000208DF805008DF8060065
:101940008DF8070004F5C0606A460821FFF7B0FB78
:10195000052001F0D5FA23208DF8000084208DF8B1
:10196000010060208DF8020002208DF80300642041
:101970008DF8040000208DF805008DF806008DF824
:10198000070004F5C0606A460821FFF791FB0520B7
:1019900001F0B6FA00201CBD2F60600003000000BB
:1019A000F8B504460D461646009504F540706A46A3
:1019B0000421FFF77DFB052001F0A2FA009604F553
:1019C00080606A460421FFF773FBF8BD01460020E2
:1019D000034A506820F440400843506070470000BC
:1019E0000010024029B1064AD2690243044BDA6171
:1019F00004E0034AD2698243014BDA617047000078
:101A00000010024029B1064A92690243044B9A61D0
:101A100004E0034A92698243014B9A6170470000D7
:101A20000010024029B1064AD2680243044BDA6032
:101A300004E0034AD2688243014BDA607047000039
:101A40000010024030B500210022002400232D4D5B
:101A50006D6805F00C0121B1042905D0082923D1B6
:101A600005E0294D056022E0274D05601FE0254D6A
:101A70006D6805F47012234D6D6805F480340225FD
:101A800005EB92421CB9214D554305600BE01D4DFD
:101A90006D6805F400351DB11C4D5543056002E02D
:101AA000194D5543056002E0174D056000BF00BFAA
:101AB000144D6D6805F0F0010909154D6B5C056862
:101AC000DD4045600F4D6D6805F4E061090A104D79
:101AD0006B5C4568DD4085600A4D6D6805F46051BA
:101AE000C90A0B4D6B5C4568DD40C560054D6D68EE
:101AF00005F44041890B074D6B5CC568B5FBF3F5F8
:101B0000056130BD0010024000127A0000093D005E
:101B100084000020940000201CB5044636A103C9AF
:101B2000CDE9000104F5C0606A460821FFF7C0FA5C
:101B3000052001F0E5F92F208DF8000000208DF838
:101B4000010016208DF8020001208DF8030000200E
:101B50008DF804008DF805008DF806008DF807005B
:101B600004F5C0606A460821FFF7A2FA052001F0DB
:101B7000C7F923208DF8000000208DF80100162001
:101B80008DF8020001208DF8030010208DF804006C
:101B900000208DF8050040208DF8060060208DF8AB
:101BA000070004F5C0606A460821FFF781FA0520A6
:101BB00001F0A6F92F208DF8000000208DF801001B
:101BC00016208DF8020000208DF8030001208DF80A
:101BD000040000208DF805008DF806008DF8070040
:101BE00004F5C0606A460821FFF762FA052001F09B
:101BF00087F900201CBD00002F001402FE00000029
:101C00001CB504462F208DF8000001208DF801003E
:101C100016208DF8020001208DF8030000208DF8B9
:101C200004008DF805008DF806008DF8070004F516
:101C3000C0606A460821FFF73BFA052001F060F911
:101C400023208DF8000001208DF8010016208DF86A
:101C5000020001208DF8030020208DF804000120EF
:101C60008DF80500FF208DF8060060208DF8070034
:101C700004F5C0606A460821FFF71AFA052001F052
:101C80003FF92F208DF8000001208DF8010014206D
:101C90008DF8020002208DF80300FE208DF804006C
:101CA00000208DF805008DF806008DF8070004F57A
:101CB000C0606A460821FFF7FBF9052001F020F912
:101CC0002F208DF8000001208DF8010016208DF8DE
:101CD000020000208DF8030001208DF80400002090
:101CE0008DF805008DF806008DF8070004F5C0603A
:101CF0006A460821FFF7DCF9052001F001F9002010
:101D00001CBD1CB504462F208DF8000002208DF864
:101D1000010016208DF8020001208DF8030000203C
:101D20008DF804008DF805008DF806008DF8070089
:101D300004F5C0606A460821FFF7BAF9052001F0F2
:101D4000DFF823208DF8000002208DF80100162016
:101D50008DF8020001208DF8030020208DF804008A
:101D600002208DF80500FF208DF8060060208DF818
:101D7000070004F5C0606A460821FFF799F90520BD
:101D800001F0BEF82F208DF8000002208DF8010030
:101D900014208DF8020002208DF80300FE208DF83B
:101DA000040000208DF805008DF806008DF807006E
:101DB00004F5C0606A460821FFF77AF9052001F0B2
:101DC0009FF82F208DF8000002208DF801001620CA
:101DD0008DF8020000208DF8030001208DF804002A
:101DE00000208DF805008DF806008DF8070004F539
:101DF000C0606A460821FFF75BF9052001F080F812
:101E000000201CBD10B50C480068012813D10BA0A0
:101E100000F012FE02E00420FFF760FC0B480068AF
:101E20000128F8D100200449086001200749086012
:101E300000200749086010BD240000205265696E2B
:101E40006974204C42A1ADA1AD0D0A00180000201C
:101E50001400002010B50446224601212046FFF759
:101E600064FC10BD10B50446224602212046FFF74F
:101E70005CFC042C02D100200149086010BD000068
:101E80001800002010B500F001F810BD0CB50020BE
:101E9000019000903348006840F480303149086078
:101EA00000BF3048006800F4003000900198401CEA
:101EB0000190009818B90198B0F5A06FF1D12948A8
:101EC000006800F4003010B10120009001E0002013
:101ED00000900098012843D12348006840F010008A
:101EE000214908600846006820F0030008600846A1
:101EF000006840F0020008601A48406819494860CC
:101F00000846406848600846406840F48060486081
:101F10000846406820F47C1048600846406840F459
:101F2000E81048600846006840F08070086000BF14
:101F30000C48006800F000700028F9D0094840689B
:101F400020F00300074948600846406840F002005E
:101F5000486000BF0348406800F00C000828F9D131
:101F60000CBD000000100240002002401CB50446D9
:101F70000020009001902B208DF8000017208DF894
:101F8000010010208DF8020000208DF80300E820E9
:101F90008DF8040003208DF8050000208DF8060060
:101FA0008DF8070004F5C0606A460821FFF780F845
:101FB000052000F0A5FF1CBD042808D14FF0E0214A
:101FC000096941F004014FF0E022116107E04FF090
:101FD000E021096921F004014FF0E022116170470E
:101FE00010B503F0B5FD012802D003F037FA04E084
:101FF00002480068401C0149086010BD7C000020B8
:1020000010B51348006840F0010011490860084607
:102010004068104908400E494860084600680E496B
:1020200008400B4908600846006820F480200860DA
:102030000846406820F4FE0048604FF41F008860A6
:10204000FFF720FF4FF000600449086010BD00005A
:10205000001002400000FFF8FFFFF6FE08ED00E070
:1020600010B50221094800F021F868B1074800F0D6
:102070001AF8074908700846017806A000F0DCFC51
:102080000221024800F00CF810BD000000080040DA
:1020900064000020C2F6B3E5BFEDB6C83D2564007C
:1020A000CA43028270470146888E704730B50246A7
:1020B000002000230024158A05EA0103958905EA1A
:1020C000010413B10CB1012000E0002030BD1CB5AB
:1020D00004462F208DF8000000208DF801001A2002
:1020E0008DF8020001208DF8030000208DF8040017
:1020F0008DF805008DF806008DF8070004F5C06026
:102100006A460821FEF7D4FF052000F0F9FE2F20D3
:102110008DF8000000208DF8010018208DF80200D5
:1021200002208DF80300FF208DF8040000208DF8B8
:1021300005008DF806008DF8070004F5C0606A46BA
:102140000821FEF7B5FF052000F0DAFE2B208DF800
:10215000000000208DF8010018208DF802000520F5
:102160008DF80300C8208DF8040000208DF80500CC
:102170008DF806008DF8070004F5C0606A46082156
:10218000FEF796FF052000F0BBFE23208DF800002F
:1021900000208DF801001A208DF8020001208DF832
:1021A000030020208DF8040001208DF805006C202C
:1021B0008DF8060060208DF8070004F5C0606A46BF
:1021C0000821FEF775FF052000F09AFE2F208DF8FC
:1021D000000000208DF801001A208DF80200002078
:1021E0008DF8030001208DF8040000208DF8050013
:1021F0008DF806008DF8070004F5C0606A460821D6
:10220000FEF756FF052000F07BFE00201CBD1CB52C
:1022100004462F208DF8000001208DF801001A20BF
:102220008DF8020001208DF8030000208DF80400D5
:102230008DF805008DF806008DF8070004F5C060E4
:102240006A460821FEF734FF052000F059FE2F20D2
:102250008DF8000001208DF8010018208DF8020093
:1022600002208DF80300FF208DF8040000208DF877
:1022700005008DF806008DF8070004F5C0606A4679
:102280000821FEF715FF052000F03AFE2B208DF8FF
:10229000000001208DF8010018208DF802000520B3
:1022A0008DF80300C8208DF8040000208DF805008B
:1022B0008DF806008DF8070004F5C0606A46082115
:1022C000FEF7F6FE052000F01BFE23208DF800002F
:1022D00001208DF801001A208DF8020001208DF8F0
:1022E000030020208DF8040002208DF805006C20EA
:1022F0008DF8060060208DF8070004F5C0606A467E
:102300000821FEF7D5FE052000F0FAFD2F208DF8FC
:10231000000001208DF801001A208DF80200002035
:102320008DF8030001208DF8040000208DF80500D1
:102330008DF806008DF8070004F5C0606A46082194
:10234000FEF7B6FE052000F0DBFD00201CBD1CB52D
:1023500004462F208DF8000003208DF8010018207E
:102360008DF8020002208DF80300FE208DF8040095
:1023700000208DF805008DF806008DF8070004F5A3
:10238000C0606A460821FEF793FE052000F0B8FD04
:102390002B208DF8000003208DF8010018208DF807
:1023A000020003208DF80300E8208DF804000320CC
:1023B0008DF8050000208DF806008DF8070004F563
:1023C000C0606A460821FEF773FE052000F098FD04
:1023D00023208DF8000003208DF801001A208DF8CD
:1023E000020001208DF8030020208DF80400002059
:1023F0008DF805003F208DF8060060208DF807005D
:1024000004F5C0606A460821FEF752FE052000F080
:1024100077FD2F208DF8000003208DF801001A2091
:102420008DF8020000208DF8030001208DF80400D3
:1024300000208DF805008DF806008DF8070004F5E2
:10244000C0606A460821FEF733FE052000F058FD03
:1024500000201CBD10B540F22551174800F049F985
:1024600020B340F22551144800F01BF9124800F047
:10247000FBF9C1B2114802680068401C0F4B18609C
:102480000F48815418460068401E0D49085C18B179
:102490001846006819280DD1094800780F2806D180
:1024A000074801F039FF00200449086002E00020DD
:1024B0000249086010BD0000005000405800002094
:1024C0007E01002010B540F225510C4800F011F9B2
:1024D00070B10A4800F0C8F9C4B22146074800F0BC
:1024E000C8F900BF4021054800F0F6F80128F9D1ED
:1024F0004021024800F0CCF810BD00000038014037
:1025000010B586B0044601210420FFF77BFA0121B3
:102510008803FFF777FA01210846FFF773FA4FF4B3
:102520000070ADF8140003208DF8160018208DF807
:10253000170005A91E48FEF781FF4FF48060ADF833
:10254000140004208DF8170005A91948FEF776FF3E
:1025500001940020ADF80800ADF80A00ADF80C00B9
:10256000ADF810000C20ADF80E0001A9114800F0E4
:102570000FF901210F4800F0A3F840210D4800F0A9
:1025800087F8012240F225510A4800F0DCF82520A6
:102590008DF800000A208DF8010000208DF802005F
:1025A00001208DF803006846FFF7CEF806B010BD95
:1025B000000801400038014010B540F225512B4879
:1025C00000F097F8002850D040F22551274800F03D
:1025D00068F80120264908702648007830B9084676
:1025E0000078012802D10220234908701F4800F01A
:1025F0003BF9C4B221482249097844547B2C03D0CA
:102600001F480078002805DD1D480078401C1C4943
:10261000087002E000201A490870194800780B2859
:1026200023D10020164908701448807A7D281CD1D7
:102630000021092000F006FC1049497A884214D193
:102640000E4A1179D07800F0A1FF0E4908600B4ABC
:102650009179507900F09AFF0B490860074A117A86
:10266000D07900F093FF0949086010BD0044004094
:102670003D0000203C0000207400002048010020A4
:102680005C0000204C00002050000020540000207E
:1026900001F40072B2F5007F00D100BFCA4302808E
:1026A000704710B50022002340F66A14A14200D101
:1026B00000BF0A1201249440A3B2DC43048010BD81
:1026C00021B1828942F40052828104E082894DF670
:1026D000FF731A408281704702460020B1F5007FE7
:1026E00000D100BF13880B400BB1012000E0002097
:1026F000704770B50246002400230025002040F6F4
:102700006A16B14200D100BFC1F3421501F01F03A8
:10271000012606FA03F3012D02D19689334006E023
:10272000022D02D1168A334001E0968A33400C1202
:10273000012606FA04F41688344013B10CB10120C6
:1027400000E0002070BDF0B50346002400260025FF
:10275000002040F66A17B94200D100BF1846C1F305
:10276000421401F01F06012707FA06F5012C01D1DA
:102770000C3004E0022C01D1103000E014301AB10A
:1027800007682F43076002E00768AF430760F0BDAA
:102790002DE9F04786B005460E460024A24600BF4C
:1027A000A1460027B08900B100BF2F462C8A4CF605
:1027B000FF700440F08804432C82AC894EF6F3107D
:1027C0000440B08831890843718908430443AC81CF
:1027D000AC8A4FF6FF400440B0890443AC8201A8A4
:1027E000FFF730F91F48874202D1DDF810A001E061
:1027F000DDF80CA0A88900F4004040B10AEBCA0043
:1028000000EB0A1031684900B0FBF1F807E00AEB71
:10281000CA0000EB0A1031688900B0FBF1F86420AF
:10282000B8FBF0F004012009642101FB1089A8899C
:1028300000F4004040B1322000EBC900B0FBF1F0E1
:1028400000F00700044308E0322000EB0910642187
:10285000B0FBF1F000F00F0004432C8106B0BDE89E
:10286000F08700000038014001468888C0F3080066
:102870007047C1F3080282807047000000B585B040
:102880006A4600216148FEF79AFB40F20471009805
:10289000884232D19DF80B005D4908605D480068B0
:1028A000401C5C4908609DF80B00042802D15A497D
:1028B000087010E09DF80B00052806D1012057494B
:1028C000086005205449087005E09DF80B007F283A
:1028D00001D1514908705048007830B94F4800681C
:1028E000401C10B901204E4908604C48006800287F
:1028F00002D101204A49086081E00098B0F5C27F0A
:102900000DD19DF80B00474908709DF80C004870E8
:102910009DF80D0088709DF80E00C8706FE000985B
:10292000B0F5217F0DD19DF80B003F4908709DF84F
:102930000C0048709DF80D0088709DF80E00C8705E
:102940005DE040F284410098884258D19DF80B0028
:10295000364908709DF80C0048700846008818B980
:102960000020334908804AE030480088012802D11D
:102970002F49088043E02D480088022802D12C49C5
:1029800008803CE029480088042802D128490880B2
:1029900035E026480088082802D1254908802EE025
:1029A00022480088102802D12149088027E01F48CA
:1029B0000088202802D11E49088020E01B4800889A
:1029C000402802D11A49088019E018480088802858
:1029D00002D11749088012E014480088B0F5807FC2
:1029E00004D14FF480701249088008E00F48008835
:1029F000B0F5007F03D14FF400700D49088002212B
:102A00000248FEF7A9F905B000BD000000640040CF
:102A1000380000202800002030000020180000208E
:102A2000240000201C000020200000203400002092
:102A30003200002000BFFEE70FB4054B10B503A91C
:102A4000044A029800F018F810BC5DF814FB00006E
:102A5000892F00088000002002E008C8121F08C16A
:102A6000002AFAD170477047002001E001C1121F0F
:102A7000002AFBD1704700002DE9FF4F8DB09B4627
:102A80000F460446002606E025280BD05A460F992B
:102A90009047641C761C20780028F5D111B0304690
:102AA000BDE8F08F0025A8460122984900E00543C3
:102AB00014F8013F203B02FA03F00842F7D12078D6
:102AC0002E2817D114F8010F45F004052A280ED03E
:102AD0006FF02F022078A0F1300109290AD808EB05
:102AE000880102EB410100EB0108641CF2E757F892
:102AF000048B641C20786C280DD004DC4C2812D088
:102B00006A2811D104E074280DD07A280CD10AE08B
:102B100045F4001507E0617845F48015814202D143
:102B2000641C05F58015641C2278692A45D008DCF0
:102B3000002AB3D0582A69D0632A10D0642A08D159
:102B40003BE0702A67D0732A13D0752A5CD0782AAC
:102B50005CD010465A460F999047761CD3E017F880
:102B6000040B8DF8000000208DF80100E9460120DB
:102B700003E057F8049B4FF0FF3069074FF0000562
:102B800001D40AE06D1C45450DDA8542FADB19F8DF
:102B900005100029F6D106E06D1C8542FCDB19F812
:102BA00005100029F8D12E4404E019F8010B5A460B
:102BB0000F9990476D1EF8D2A5E00A200021CDE9BB
:102BC0000801C5F3025002280DD001CFC117031E22
:102BD00071F100030DDA4FF0000CD0EB0C006CEB40
:102BE00001012D2308E0FF1D27F00707F7E8020188
:102BF000EDE72B0504D52B238DF8283001233BE08E
:102C0000EB0739D02023F7E70A2000E0102000214D
:102C1000CDE9080107E01020002145F00405CDE9C9
:102C200008014FF00808C5F3025002280FD001CF69
:102C300000214FF0000A2B071FD5702A0DD0DDE9C7
:102C400008C38CF0100C5CEA030C0CD015E0FF1DDF
:102C500027F00707F7E80201EBE740228DF828206C
:102C60004FF0010A0BE050EA010306D030238DF843
:102C700028308DF8292002239A46582A04D024A20D
:102C80000DF120090B9209E026A2F9E7DDE90823FE
:102C9000FDF7F2FD0B9B9B5C09F8013D50EA010238
:102CA000F4D1ADEB090020300890680701D44FF053
:102CB00001080899884502DDA8EB010000E000202A
:102CC0008046002506E00AA85A46405D0F999047C5
:102CD0006D1C761C5545F6DB04E030205A460F99F2
:102CE0009047761CB8F10001A8F10108F5DC05E079
:102CF00019F8010B5A460F999047761C0899481EFF
:102D000008900029F4DC641CC5E6000009280100D5
:102D10003031323334353637383961626364656651
:102D20000000000030313233343536373839414213
:102D300043444546000000000146002901DA4842AC
:102D400070470846FCE7000000B589B0012120204B
:102D5000FEF758FE01214806FEF744FE0121084611
:102D6000FEF750FE01214FF4EB10FEF7F3FB0120BC
:102D7000ADF8200048208DF8230008A92F48FEF761
:102D80005DFB0220ADF8200018208DF82300032001
:102D90008DF8220008A92948FEF750FB00208DF885
:102DA0001A008DF81B008DF81C0001208DF81D0005
:102DB00000208DF81E008DF81F008DF816008DF88C
:102DC000170002208DF8180001208DF819000C2042
:102DD000ADF8140005A91A48FEF767F800208DF831
:102DE0000E008DF80F0001208DF810000020ADF8C6
:102DF0000400ADF80600ADF80800ADF80A00ADF823
:102E00000C0001208DF8110001A8FDF7C1FF01227F
:102E100002210B48FEF740F814208DF8000007202F
:102E20008DF8010000208DF8020001208DF80300CC
:102E30006846FEF789FC09B000BD0000001401409F
:102E40000064004010B502460B460020012B08D15B
:102E5000002104E0084C645C60404C1CE1B29142EB
:102E6000F8DB43B9002104E0044C645C60404C1C76
:102E7000E1B29142F8DB10BD24010020480100209E
:102E800008B500F0CDF8009000BF09E03221684697
:102E900002F012F800F066FA00F0FCF801F0AAFD6A
:102EA000F4E7000010B50420FFF786F8104800682A
:102EB0001049B0FBF1F0104908700D4800680D4949
:102EC000B0FBF1F44FF47A70444301200B490880C1
:102ED0004FF0E020006940F002004FF0E02108616F
:102EE00008464461006940F00100086110BD00001F
:102EF0001001002040420F00780000207A000020DE
:102F000070B5044602F024FE012810D00B4800885A
:102F1000844206D309480088B4FBF0F5284601F046
:102F200091FF06480088B4FBF0F100FB11444FF418
:102F30007A7104FB01F000F003F870BD7A00002004
:102F400070B5034600224FF0E02675690D4E3678C5
:102F500003FB06F44FF0E026B16910E04FF0E026E5
:102F6000B06988420BD0884202D20E1A324402E085
:102F70002E1A0E4432440146A24200D300E0EDE78F
:102F800000BF70BD7800002070B504460D46E1B268
:102F90000548FFF76EFC00BF80210348FFF79CFB4C
:102FA0000028F9D0204670BD003801402DE9F041DD
:102FB000154909684842FDF7A0FB0646134A144B21
:102FC000FDF7B1FA0446FDF7CFFB124948601249FC
:102FD0000868FDF792FB06460C4A0D4BFDF7A3FA75
:102FE0000446FDF7C1FB0D4948600A49486801F0F5
:102FF00075F90849C8600949486801F06FF907493F
:10300000C860BDE8F08100001C0000209A999999E1
:103010009999B93F9801002020000020A8010020C4
:1030200010B502F095FD012802D002F0A1FD10BDFF
:1030300001480068FBE700007C00002001460020FA
:10304000B1F5E26F01DB01200CE0F02902DA4FF06C
:10305000FF3007E0A1F2FF300A2803DA10F10A0F6F
:1030600000DD0020704701460020B1F5E26F01DB72
:1030700001200EE0F02902DA4FF0FF3009E0A1F262
:10308000FF30021E01DB134600E053420A2B00DA38
:103090000020704770B57B20344908767D21334885
:1030A00080F82210FFF782FF314AD168314AD06898
:1030B000FDF7CAF806464FF08041FDF74FF9054687
:1030C0002D49FDF719F90446FDF735FB01B22748F4
:1030D000418300218183274AD168254AD068FDF7C2
:1030E00005F906462549FDF739F905462249FDF758
:1030F00003F90446FDF71FFB01B21C48C1831E49BA
:103100001F480068FDF7F8F80446FDF714FB01B20C
:1031100016480184007E154908700846408B000A55
:1031200088700846807EC8700846808B000A087147
:103130000846007F48710846C08B000A887108461F
:10314000807FC8710846008C000A0875084690F810
:103150002000487501211620FFF774FE0349887589
:10316000084690F82200C87570BD000024010020B8
:10317000A80100209801002000007A443333B33EB8
:10318000000000202DE9F041044688461546194903
:103190002846FDF7B1F807464FF08041FDF7DEF80D
:1031A00006462146FDF7A5F81349886011492846CF
:1031B000FDF7A2F807464FF08041FDF7CFF806462D
:1031C0002146FDF741F80D4988600B49886800F0F9
:1031D00069F8064601F000FB07490860074988685E
:1031E00000F060F8064601F0F7FA04490860BDE80F
:1031F000F08100003333B33E98010020A801002085
:1032000008B501214020FEF7FDFB01211020FEF74B
:10321000F9FB4FF48060ADF8000010208DF803003A
:1032200003208DF8020069461048FEF707F94FF4B5
:1032300080610E48FEF7D6F94FF4C070ADF800007B
:1032400010208DF8030003208DF80200694608481D
:10325000FEF7F4F869460648FEF7F0F80120054944
:1032600008600549C1F89C0108BD00000018014034
:1032700000100140A0012242000022420BE006485B
:103280000068C0430549C1F8A80101F00FFB0448DC
:10329000006801F0D7FDF2E7A801234200002342B5
:1032A000600000202DE9F041044600250949204630
:1032B000FDF722F880460849FDF750F807464FF021
:1032C0007E51FDF719F80646FDF735FA0546284602
:1032D000BDE8F081000070420393DF3E1CB5FDF7AE
:1032E0000FFD0748042100238A01CDE9001005A144
:1032F000074802F0FDFB01F0AFFF00201CBD0000FD
:103300000C01002073746172745F7461736B000050
:10331000F547000808B5FFF783FE009000BF15E0F1
:103320000A21684601F0C8FD01F09CF908480268CE
:103330000848016808480068FFF724FF074802684A
:10334000074800684142042001F05CF9E8E700000A
:10335000700000206C00002068000020A801002000
:10336000980100202DE9F041002500247E48858940
:10337000A5F1F000FFF7E0FC0A2808DA00207B49FD
:1033800008707B4908707B490860BDE8F081A5F2B0
:103390000F70FFF7D1FC0A281CDA0120734908706E
:1033A0000020754908700120714908706E484589F0
:1033B000A5F1F000FFF7C0FC0A2841DA6A498888C5
:1033C000FFF751FE0446002C19DD012C03D1142017
:1033D00068490860C3E064498988A1F2FF30FDF7BD
:1033E00083F980466549FCF787FF07466449FCF787
:1033F000B5FF0646FDF79FF95E490860AFE0002C77
:103400001ADA601C20B96FF013005A490860A6E070
:1034100055498988A1F2FF30FDF766F98046574982
:10342000FCF76AFF07465649FCF798FF0646FDF78A
:1034300082F95049086092E000204E4908608EE011
:10344000A5F2FF30FFF778FC0A2841DA4649888860
:10345000FFF709FE0446002C19DD012C03D12820BA
:10346000444908607BE040498988A1F2FF30FDF7BC
:103470003BF980464349FCF73FFF07464049FCF7CC
:103480006DFF0646FDF757F93A49086067E0002CE2
:103490001ADA601C20B96FF02700364908605EE038
:1034A00031498988A1F2FF30FDF71EF98046354980
:1034B000FCF722FF07463249FCF750FF0646FDF7AE
:1034C0003AF92C4908604AE000202A49086046E0A1
:1034D000A5F20F70FFF730FC0A2840DA22498888ED
:1034E000FFF7C1FD0446002C19DD012C03D1642037
:1034F0002049086033E01C498988A1F2FF30FDF7BC
:10350000F3F880462049FCF7F7FE07461C49FCF714
:1035100025FF0646FDF70FF9164908601FE0002C4D
:103520001ADA601C20B96FF063001249086016E0D7
:103530000D498988A1F2FF30FDF7D6F8804612497F
:10354000FCF7DAFE07460E49FCF708FF0646FDF7D2
:10355000F2F80849086002E000200649086000F01F
:1035600047FF00BF11E70000680100203C00002079
:1035700074000020400000203D0000200000A04119
:1035800000004444000020420000C8422DE9FF5FD3
:103590000446894609EB04200FFA80FA4FF47A704A
:1035A0009AFBF0F100FB11AB5846FDF7A6F8074671
:1035B0000C4A0D4BFCF7B7FF05460E464FF47A70E8
:1035C0009AFBF0F73846FDF798F82A463346CDE9DE
:1035D0000001FCF701FFCDE90201FDF727F904B076
:1035E000BDE8F09FFCA9F1D24D62503F2DE9F041BA
:1035F00005460E461C4807681C480068001D01F07F
:1036000063FA50B91948006890F82C1001208840DE
:1036100017490968814316480160681C38B936B1FA
:1036200012480168091D134801F08CFA1AE07C1950
:103630000E4800684460BC4207D20C480168091D6E
:103640000D48006801F064FA0CE008480168091DA3
:103650000A48006801F05CFA09480068844201D217
:1036600007480460BDE8F081D0000020BC000020C5
:10367000D4000020C8540020C4000020C000002056
:10368000EC00002010B5044601F068FA24480068F8
:10369000401C234908602348006840B92148046061
:1036A0000846006801280DD100F0EEF90AE01E4836
:1036B000006838B91B480068C06AE16A884201D8CE
:1036C0001848046019480068401C184908600846FA
:1036D0000068606494F82C1001208840144909683F
:1036E000084313490860E16A01EB8101114A02EBCA
:1036F0008100211D01F026FA01F074FA0A480068E1
:1037000068B108480068C06AE16A884207D24FF091
:10371000805009490860BFF34F8FBFF36F8F10BD12
:10372000CC000020BC000020D8000020E8000020D1
:10373000D4000020F851002004ED00E010B501F0A5
:103740000DFA10480068D0B90F4801F0D1F90F48C0
:1037500001F0CEF90C480E4908600C480D4908608C
:1037600000221021052001F093FE0649086008465A
:10377000006820B108A10348006801F027FB01F0B0
:1037800031FA10BD00010020DC540020F05400206C
:10379000F8000020FC000020546D72510000000071
:1037A00070B523E001F0AEFD1348006808B90120B0
:1037B00000E00020054602F057FBBDB901F0CEF94C
:1037C0000D48C068C468201D01F07EF90B480068F0
:1037D000401E0A4908600A480068401E08490860FF
:1037E00001F000FA204600F060F800BF04480068CD
:1037F0000028D7D170BD0000B4540020CC000020B8
:10380000C800002070B504460D46206C70B1216CD4
:10381000E0680844E0606168E068884201D320689D
:10382000E0602846226CE168FCF7EAFC70BD2DE9F7
:10383000F04104460F4615464FF00008A66B206C79
:1038400040B9206860BB606802F048FA80460020FA
:10385000606025E07DB93946226CA068FCF7D0FC99
:10386000216CA0680844A060D4E90110884217D3F5
:103870002068A06014E03946226CE068FCF7C0FCC8
:10388000216CE068401AE0602168E068884203D259
:10389000216C6068401AE060022D01D106B1761EED
:1038A000701CA0634046BDE8F08110B50446206B53
:1038B00001F0D0F9204601F0CDF910BD0146084ACB
:1038C000126812680AB9012200E000220A600A6840
:1038D00022B9034A1268D268106800E000207047DD
:1038E000F800002030B54FF4A043174800F007045B
:1038F0002CB1C01D20F00700134C041B1B1B0246FB
:10390000124C22600024114D6C60D018083820F051
:1039100007000F4C206000240D4D2D686C600C4D8D
:103920002D682C601146441A4C60094C24680C60C8
:10393000084D4C682C60084D4C682C604FF00044DA
:10394000064D2C6030BD0000B8010020980000201A
:10395000A0000020A8000020A4000020AC0000204F
:1039600000BFFFF71DFF064800680128F9D94FF096
:10397000805004490860BFF34F8FBFF36F8FF0E7AB
:10398000F851002004ED00E02DE9F04106460D4617
:1039900017469846069C0DB9246000E02760E66350
:1039A00025640121204601F091FE84F8508000201A
:1039B000A064BDE8F08100002DE9F05F82460F466B
:1039C00090469B460A9E0C9C4FEA8801A522206BDC
:1039D000FCF728FCA8F10100216B01EB800929F01C
:1039E000070909F0070008B9012000E0002028B904
:1039F00040F22B321BA120A0FFF71EF8002507E0A4
:103A0000795D04F134004155785D00B902E06D1C28
:103A1000102DF5D300BF002143200155202E00D3E7
:103A20001F26E662E66400202065201D01F06DF887
:103A300004F1180001F069F82461C6F12000A061CA
:103A400064620020606584F858005A465146484632
:103A500000F000FC20600B9808B10B980460BDE8F2
:103A6000F09F00002E2E5C4672656552544F535CE9
:103A70007461736B732E63004572726F723A2573B3
:103A80002C25640D0A00000010B5002407E004EBAB
:103A900084010F4A02EB810001F02AF8641C202CFB
:103AA000F5D30C4801F024F80B4801F021F80B483D
:103AB00001F01EF80A4801F01BF80A4801F018F856
:103AC00004480949086004480849086010BD00001E
:103AD000F8510020785400208C540020A05400207D
:103AE000B4540020C8540020C0000020C4000020AE
:103AF00010B50146164800E0006803688B42FBD30E
:103B00000246436813448B4204D143684C68234403
:103B1000436001460A464B6813440468A34211D12E
:103B20000C4C03682468A34208D04B68046864689E
:103B300023444B6003681B680B6005E0054B1B6862
:103B40000B6001E003680B60884200D0016010BD8B
:103B500098000020A00000202DE9F04104460D4609
:103B600016461F464FF0000865602461B5420CD828
:103B7000F01BA169884202D34FF0010811E0211D1A
:103B80000948006800F0C4FF0BE0BE4204D2BD4209
:103B900002D34FF0010804E0211D0448006800F042
:103BA000B7FF4046BDE8F081FC000020F80000208F
:103BB00070B5054600F0D2FFA86B08B9012400E0FB
:103BC000002401F00FF8204670BD70B5054600F0E6
:103BD000C5FFA86BE96B884201D1012400E00024F5
:103BE00001F000F8204670BD2DE9F3410D46009824
:103BF000846C00272CB940F6CE121AA11EA0FEF745
:103C00001BFFA06BE16B884201D2012000E0002085
:103C100028B940F6CF1213A117A0FEF70DFFA06B35
:103C2000E16B88421BD294F945602A4669462046DA
:103C3000FFF7FDFD0746701C60B9606A08B90120F6
:103C400000E0002050B904F1240002F0B3F828B1DC
:103C5000012703E0701C40B284F8450000BF3846DD
:103C6000BDE8FC812E2E5C4672656552544F535C54
:103C700071756575652E63004572726F723A2573B2
:103C80002C25640D0A000000F8B505460F461348C0
:103C90000068C068C468201D00F016FFE0690128B4
:103CA00018D1A06941192B463A462046FFF754FF28
:103CB00080B1002003462A4601460090204602F0CB
:103CC0009DF906462EB94FF4027205A10AA0FEF72F
:103CD000B3FE00BF2046616A8847F8BDF8000020A7
:103CE0002E2E5C4672656552544F535C74696D6547
:103CF00072732E63000000004572726F723A257372
:103D00002C25640D0A000000F0B587B070E0039820
:103D100000280CDA04AE2EB940F2E7223AA140A006
:103D2000FEF78AFED6E90020B168904700BF0398ED
:103D300000285DDB059C606908B9012000E00020D7
:103D400010B9201D00F0C0FE02A800F0C7F805461B
:103D500003980A284AD2DFE800F00905072C2E450F
:103D600006082D2F00BF00BF00BF00BF0498A26946
:103D7000811803462A462046FFF7EEFEC0B12046D2
:103D8000616A8847E069012812D1002000900498F8
:103D9000A169421800231946204602F02FF9074670
:103DA0002FB940F2213218A11DA0FEF745FE00BF39
:103DB0001DE000BF1BE000BF0498A061A06908B12E
:103DC000012000E0002028B94FF44E720EA114A08B
:103DD000FEF732FEA06941192B462A462046FFF71E
:103DE000BBFE04E0204600F035FF00E000BF00BF4E
:103DF00000231A4603A90E48006801F083FB00283F
:103E000085D107B0F0BD00002E2E5C46726565526C
:103E1000544F535C74696D6572732E63000000002B
:103E20004572726F723A25732C25640D0A000000EA
:103E300000010020F8B505460C4601F063FA68461B
:103E400000F04CF80646009820BB44B9B54206D8AD
:103E500002F00AF831462846FFF716FF1CE03CB195
:103E60000E480068006808B9012000E00020044600
:103E7000A91B22460A48006800F0BEFF01F0F4FFCB
:103E800050B94FF0805007490860BFF34F8FBFF320
:103E90006F8F01E001F0E8FFF8BD0000FC0000209A
:103EA0000001002004ED00E00A490968096809B929
:103EB000012100E0002121B14FF0FF31064A1160DD
:103EC00006E004490968C968C868034A4168116086
:103ED00070470000C0000020EC00002070B50446D0
:103EE00001F046FE054607480068854204D200F00E
:103EF0000BF80120206001E00020206001480560EF
:103F0000284670BD080100202DE9F8432DE0214826
:103F10000068C06805681F480068C068C468201D44
:103F200000F0D2FD2046616A8847E06901281CD173
:103F3000A0694619AE4207D966602461211D154863
:103F4000006800F0E5FD10E0002003462A46014627
:103F50000090204602F052F807462FB940F2923204
:103F60000DA113A0FEF768FD00BF0A4800680068B5
:103F700008B9012000E000200028C8D00548D0F88A
:103F800000800F480068034908600D48C0F80080B1
:103F9000BDE8F883F80000202E2E5C46726565525D
:103FA000544F535C74696D6572732E63000000009A
:103FB0004572726F723A25732C25640D0A00000059
:103FC000FC0000200B480068401C08B9012000E0FC
:103FD000002020B9F42208A112A0FEF72DFD00BF99
:103FE000502080F31188BFF34F8FBFF36F8F00BF56
:103FF00000BFFEE7B00000202E2E5C4672656552C1
:10400000544F535C706F727461626C655C525644BD
:10401000535C41524D5F434D335C706F72742E633D
:10402000000000004572726F723A25732C25640DF2
:104030000A00000008B500BF6846FFF73FFC0446D1
:1040400020460099FFF7F6FEFFF75EFEF4E770B535
:10405000044600F083FD94F945501AE0A06C38B195
:1040600000212046FFF7C0FD88B101F019F80EE0ED
:10407000606A08B9012000E0002038B904F124008A
:1040800001F098FE18B101F00BF800E003E0681EA3
:1040900045B2002DE2DC00BFFF2084F8450000F0AF
:1040A000A1FD00F05BFD94F9445010E0206908B9CF
:1040B000012000E0002048B904F1100001F07AFE70
:1040C00008B100F0EDFF681E45B200E001E0002DF0
:1040D000ECDC00BFFF2084F8440000F083FD70BDDD
:1040E0002DE9F04104464FF0000801F00BF93E487D
:1040F000006808B9FFF7F6FB3C480068204000283C
:104100005FD1A4B1083404F0070080B104F00700C7
:10411000C0F10800044404F0070008B9012000E0E1
:10412000002020B9BF2232A13BA0FEF785FC002C65
:1041300047D03D480068844243D83C4E304605682D
:1041400001E02E462D686868A04202D22868002847
:10415000F7D125480068854233D0306800F108085F
:10416000286830606868001B102813D92F1907F0E1
:10417000070008B9012000E0002020B9EC221CA1B2
:1041800025A0FEF759FC6868001B78606C60384613
:10419000FFF7AEFC244968680968081A22490860DC
:1041A0000846006822490968884203D21E48006810
:1041B0001F4908600D496868096808436860002065
:1041C000286001F051FE08F0070008B9012000E066
:1041D000002028B94FF4967205A10FA0FEF72CFC21
:1041E0004046BDE8F0810000A0000020AC000020A7
:1041F0002E2E5C4672656552544F535C706F72741C
:1042000061626C655C4D656D4D616E675C68656192
:10421000705F342E630000004572726F723A25732E
:104220002C25640D0A000000A40000209800002046
:10423000A80000200648006830B10549096801F16E
:104240005000096D491C016001480068704700007A
:10425000BC000020001F4FF080730360001F21F09E
:1042600001030360001F034B036014380260203811
:1042700070470000C53F00081CB501212020FDF754
:10428000C1FB4FF40060ADF8040010208DF807006A
:1042900003208DF8060001A90F48FDF7CFF84FF471
:1042A0008050ADF8000010208DF8030003208DF839
:1042B000020069460848FDF7C1F84FF4006106485E
:1042C000FDF790F94FF4FA70FEF71AFE4FF48051A3
:1042D0000148FDF787F91CBD001401402DE9F041AC
:1042E000044600256000FCF7FFF980460749FCF70B
:1042F00003F807460649FBF7FFFF06460549FCF7AA
:104300002DF805462846BDE8F0810000560E4940CC
:1043100004568E3D000070420146C87D002860D1E1
:104320000120324A107548788A7840EA0220C0F3AA
:104330000A002E4A10808878C010CA7840EA4210DD
:10434000C0F30A00294A5080C87880110A7940EAEF
:1043500082004A7940EA8220C0F30A00234A908012
:10436000487940108A7940EAC210C0F30A001F4A17
:10437000D08088790011CA7940EA0210C0F30A009F
:104380001A4A1081C879C0110A7A40EA42004A7A72
:1043900040EA4220C0F30A00144A5081487A801053
:1043A0008A7A40EA8210C0F30A00104A9081887A23
:1043B0004011CA7A40EAC2000C4AD081087B4A7B8D
:1043C00040EA0220C0F30A00084A1082487BC0106D
:1043D0008A7B40EA4210C0F30A00044A508201205E
:1043E00070470020014A107500BFF9E768010020FE
:1043F0002DE9F041002500247C488589A5F1F000D5
:10440000FEF79AFC0A2804DA002079490860BDE822
:10441000F081A5F20F70FEF78FFC0A2813DA7348BB
:104420004589A5F1F000FEF787FC0A2841DA6F49BB
:104430000888FEF703FE0446002C19DD012C03D189
:104440006E206B490860CFE068490988A1F2FF300F
:10445000FCF74AF980466749FBF74EFF0746664975
:10446000FBF77CFF0646FCF766F961490860BBE094
:10447000002C1ADA601C20B96FF06D005C490860EE
:10448000B2E05A490988A1F2FF30FCF72DF98046C5
:104490005849FBF731FF07465749FBF75FFF0646D0
:1044A000FCF749F9524908609EE000205049086035
:1044B0009AE0A5F2FF30FEF73FFC0A2845DA4B49A7
:1044C0000888FEF7BBFD0446002C19DD012C03D142
:1044D000A0204749086087E044490988A1F2FF30DD
:1044E000FCF702F980464549FBF706FF07464249BB
:1044F000FBF734FF0646FCF71EF93D49086073E000
:104500003A490888FEF79AFD00281ADA601C20B99B
:104510006FF09F003649086066E034490988A1F2CF
:10452000FF30FCF7E1F880463449FBF7E5FE07462B
:104530003149FBF713FF0646FCF7FDF82C490860EC
:1045400052E000202A4908604EE0A5F20F70FEF705
:10455000F3FB0A2845DA25490888FEF76FFD044673
:10456000002C19DD012C03D1DC20214908603BE03F
:104570001E490988A1F2FF30FCF7B6F880462049B1
:10458000FBF7BAFE07461C49FBF7E8FE0646FCF7B8
:10459000D2F81749086027E014490888FEF74EFD55
:1045A00000281ADA601C20B96FF0DB00104908609F
:1045B0001AE00E490988A1F2FF30FCF795F8804611
:1045C0000F49FBF799FE07460B49FBF7C7FE064666
:1045D000FCF7B1F80649086006E0002004490860CD
:1045E00002E000200249086000BF10E768010020D7
:1045F000440000200000DC4200004444000020434E
:1046000000005C4370B504460D461646FCF784FE78
:10461000FDF7F8FBFDF734F810480068012809D1D0
:104620000F480078052805D1E0B232462946FDF74B
:10463000B7F912E00A480078042803D1E0B2FDF788
:1046400011FC0AE005480068012806D104480078FA
:104650007F2802D1E0B2FDF7FDFB70BD18000020FD
:10466000300000202DE9F0412648007801282FD1A4
:1046700025480068FCF738F880464FF08041FBF78A
:104680003BFE07462149FBF737FE06462049FBF76C
:1046900033FE05461F49FBF761FE04464FF07E518D
:1046A000FBF75CFE1C49086000201C4908601C48A0
:1046B0000068FCF719F880F000451A492846FBF716
:1046C0004DFE04461849FBF717FE1849086017E02D
:1046D0000C48007802280CD1154800680E49086083
:1046E000144800680D490860134800680F490860C5
:1046F00006E0002008490860084908600B49086086
:10470000BDE8F0817400002040000020560E4940B2
:1047100004568E3D00007042680000206C000020AE
:10472000440000200000FA43560E493F700000206C
:104730004C000020500000205400002008B5FEF777
:104740006FFC009000BF35E01421684600F0B4FB18
:1047500019480068401C18490860FCF75FFF0446D0
:10476000164801682046FBF76FFD144908604FF0BA
:104770007E5113480068FBF767FD11490446086045
:104780001049FCF76FF815D10E490C480068FBF78B
:10479000E5FD0D49086000200849086008490860E7
:1047A0000A4909480068FBF7D9FD0949086001205A
:1047B00008490860C8E70000140000200400002039
:1047C000080000200000A041000000200000584226
:1047D0000C000020100000200146C82901DBC82081
:1047E000704711F1C80F02DC6FF0C700F8E7084608
:1047F000F6E700001CB5044600F0B0F900200421E3
:104800000346CA01CDE9001014A1194801F070F95E
:104810000020032103464FF40072CDE9001015A1DA
:10482000174801F065F90020032103468022CDE9F5
:10483000001014A1154801F05BF900200421034683
:10484000CA01CDE9001012A1164801F051F916482D
:10485000006800F09FFB00F0C5F91CBD6D6F746926
:104860006F6E436F6E74726F6C5461736B000000F7
:104870001533000873686F775461736B0000000094
:104880003D4700086C65645461736B007D3200081D
:10489000636F6D6D756E69636174696F6E5461737A
:1048A0006B000000812E00080C01002070B51A4832
:1048B0000068FBF778FF04464FF03332174BFBF7E5
:1048C0009DFF0AD216480068C0431649C1F8A001EE
:1048D0004FF4967000F0B6FA1CE00F480068FBF742
:1048E00062FF04464FF033320F4BFBF76FFF0BD2E2
:1048F0000B48001F0068C0430A49C1F89C014FF4EF
:10490000967000F09FFA05E000200549086005490F
:10491000C1F89C0170BD0000700000203333D33F0C
:10492000A0012242000022423333D3BF10B586B02B
:10493000044601210846FDF765F801210420FDF732
:1049400061F801214804FDF74DF80420ADF814008A
:1049500003208DF8160018208DF8170005A91C48B3
:10496000FCF76CFD0820ADF8140048208DF8170006
:1049700005A91748FCF762FD26208DF800000820E5
:104980008DF8010000208DF8020001208DF8030051
:104990006846FCF7D9FE01940020ADF80800ADF898
:1049A0000A00ADF80C00ADF810000C20ADF80E00B8
:1049B00001A90848FDF7ECFE012240F22551054807
:1049C000FDF7C1FE01210348FDF77AFE06B010BDD8
:1049D00000080140004400400549088000BF044928
:1049E000091F098801F040010029F8D07047000034
:1049F0000444004000B5002200BF05E00449885C83
:104A0000FFF7EAFF501CC2B2182AF7DB00BD000016
:104A10002401002010B586B0044601210805FCF7EA
:104A2000E1FF01213020FCF7EDFF4FF48050ADF89D
:104A3000140003208DF8160018208DF8170005A922
:104A40001E48FCF7FBFC0420ADF814008DF817009D
:104A500005A91B48FCF7F2FC35208DF80000082062
:104A60008DF8010000208DF8020001208DF8030070
:104A70006846FCF769FE01944FF48050ADF80800D9
:104A80000020ADF80A004FF48060ADF80C00002063
:104A9000ADF810000420ADF80E0001A90948FDF79B
:104AA00077FE012240F225510648FDF74CFE012118
:104AB0000448FDF705FE06B010BD000000100140DF
:104AC000001401400050004001460A69D1E901305C
:104AD0009860D1E9010358605068884201D1886824
:104AE0005060002008611068401E10601068704718
:104AF00000F1080141604FF0FF31816000F10801D1
:104B0000C1600161002101607047002101617047AF
:104B100010B502460B685C1C0CB9106907E002F185
:104B2000080000E04068446824689C42FAD9446860
:104B30004C604C68A160886041600A611468641C24
:104B4000146010BD42684A6093688B609368596036
:104B50009160086103685B1C0360704710B500BF7B
:104B6000502080F31188BFF34F8FBFF36F8F00BFCA
:104B70000B480068401C0A49086008460068012884
:104B80000DD108480068C0B208B9012000E000203B
:104B900028B94FF4BD7204A10EA0FDF74DFF10BD62
:104BA000B000002004ED00E02E2E5C4672656552D8
:104BB000544F535C706F727461626C655C52564402
:104BC000535C41524D5F434D335C706F72742E6382
:104BD000000000004572726F723A25732C25640D37
:104BE0000A00000010B50B48006828B940F2811295
:104BF00009A114A0FDF720FF06480068401E0549E2
:104C000008600846006820B9002080F3118800BFC2
:104C100000BF10BDB00000202E2E5C4672656552AC
:104C2000544F535C706F727461626C655C52564491
:104C3000535C41524D5F434D335C706F72742E6311
:104C4000000000004572726F723A25732C25640DC6
:104C50000A00000070B506463546002E35D0083DE6
:104C60002C461A4960680968084008B1012000E034
:104C7000002028B94FF4A07215A11FA0FDF7DCFE9B
:104C8000206808B9012000E0002028B940F2411254
:104C90000FA119A0FDF7D0FE0C4960680968084013
:104CA00098B1206888B909496068096888436060DC
:104CB00000F028FB1449606809680844124908603C
:104CC0002046FEF715FF01F0CFF870BDAC000020C4
:104CD0002E2E5C4672656552544F535C706F727431
:104CE00061626C655C4D656D4D616E675C686561A8
:104CF000705F342E630000004572726F723A257344
:104D00002C25640D0A000000A4000020064800685D
:104D10004FF47A71B0FBF1F0401E4FF0E021486192
:104D200007200861704700001001002070B5FBF7F4
:104D300051FA0546102D11D305F1E02090F8F0430B
:104D400010480078844201DB012000E0002028B9EF
:104D50004FF42A720CA117A0FDF76EFE19480068E7
:104D600000F4E06018490968884201D8012000E099
:104D7000002028B94FF42E7203A10EA0FDF75CFEAF
:104D800070BD0000B40000202E2E5C467265655296
:104D9000544F535C706F727461626C655C52564420
:104DA000535C41524D5F434D335C706F72742E63A0
:104DB000000000004572726F723A25732C25640D55
:104DC0000A0000000CED00E0B800002002460020C0
:104DD0000BE0084B53F8303033B9064B43F8301032
:104DE00003EBC0035A6002E0401C0828F1D300BF67
:104DF00070470000B85100202DE9F04105460E46ED
:104E000017462C46FFF7AAFE94F94400401C10B93F
:104E1000002084F8440094F94500401C10B900209B
:104E200084F84500FFF7DEFEA06B28B93A4631460C
:104E300004F1240000F064F92046FFF708F9BDE80A
:104E4000F081000070B504460025ACB10F48006841
:104E500008B9012000E0002028B940F2CF420CA19F
:104E600010A0FDF7E9FD00F04DFA00212046FEF705
:104E7000BDFB00F0F9FF05463DB94FF080500D49EC
:104E80000860BFF34F8FBFF36F8F70BDF400002039
:104E90002E2E5C4672656552544F535C7461736B81
:104EA000732E63004572726F723A25732C25640D60
:104EB0000A00000004ED00E02DE9F04704460F462B
:104EC0004FF000092CB940F2794226A12AA0FDF743
:104ED000B3FD0FB1012000E0002028B940F27A4272
:104EE00020A125A0FDF7A8FD2748006808B90120EA
:104EF00000E0002028B940F27B421AA11EA0FDF775
:104F00009BFD00F0FFF9214806682068C51920685C
:104F1000B04207D92068A8420BD9B54209D94FF051
:104F2000010906E02068A84201D8B54201D94FF036
:104F300001092560B9F1000F03D0A81B0021FEF77D
:104F400055FB00F091FF8046B8F1000F07D14FF0FC
:104F500080500F490860BFF34F8FBFF36F8FBDE8DC
:104F6000F08700002E2E5C4672656552544F535CEC
:104F70007461736B732E63004572726F723A25739E
:104F80002C25640D0A000000F4000020D000002051
:104F900004ED00E070B50546FFF7E0FD15B92D48BA
:104FA000006800E028460446201DFFF78DFD78B913
:104FB000E06A00EB8000284951F8200040B994F8DD
:104FC0002C1001208840254909688143234801604D
:104FD000A06A18B104F11800FFF776FD20480068B8
:104FE000401C1F4908601B480068844209D1211DEC
:104FF0001C48FFF7A7FD1C480068401C1A490860C0
:1050000009E01A480068401E184908602046FEF76B
:105010004CFCFEF749FFFFF7E5FD15480068C0B1FD
:105020000C480068844214D11248006808B9012075
:1050300000E0002028B940F265420FA113A0FDF75F
:10504000FBFC4FF0805015490860BFF34F8FBFF352
:105050006F8F70BDBC000020F8510020D4000020EC
:10506000E8000020B4540020C8000020CC0000203C
:10507000D8000020F40000202E2E5C467265655298
:10508000544F535C7461736B732E63004572726F7F
:10509000723A25732C25640D0A00000004ED00E02F
:1050A0000120014908607047E000002070B5044607
:1050B0000D462CB940F6073207A10CA0FDF7BCFC49
:1050C0000E48016818312046FFF722FD01212846CD
:1050D000FEF78CFA70BD00002E2E5C46726565529C
:1050E000544F535C7461736B732E63004572726F1F
:1050F000723A25732C25640D0A000000BC000020C4
:1051000070B505460E4614462DB940F6323209A157
:105110000DA0FDF791FC1048016818312846FFF7F3
:1051200011FD0CB14FF0FF3621463046FEF75EFA16
:1051300070BD00002E2E5C4672656552544F535C64
:105140007461736B732E63004572726F723A2573CC
:105150002C25640D0A000000BC00002070B5054637
:105160002C46002D4BD02649E06A0968C96A88425E
:1051700045D2A06900F0004028B921480068C06A03
:10518000C0F12000A061E16A01EB81011D4A02EB40
:1051900081016069884201D1012000E0002050B304
:1051A000201DFFF791FC78B9E06A00EB80001549FB
:1051B00051F8200040B994F82C1001208840124981
:1051C00009688143104801600D480068C06AE062C8
:1051D00094F82C10012088400B49096808430A49BB
:1051E0000860E16A01EB8101064A02EB8100211DA2
:1051F000FFF7A8FC03E002480068C06AE06270BDE7
:10520000BC000020F8510020D400002010B5044656
:105210002CB940F6C23205A109A0FDF70DFC0C48DF
:10522000006820600B480068606010BD2E2E5C4650
:1052300072656552544F535C7461736B732E6300D7
:105240004572726F723A25732C25640D0A000000B6
:10525000E4000020D00000201CB51A4800210B46B5
:105260008222CDE9001018A1194800F041FC044643
:10527000012C02D100F088FE0446012C15D100BF9C
:10528000502080F31188BFF34F8FBFF36F8F00BFA3
:105290004FF0FF300F49086001200F4908600020DF
:1052A0000E49086000F08AF80BE0601C08B101208C
:1052B00000E0002028B940F2847209A10DA0FDF79A
:1052C000BBFB1CBDF000002049444C450000000021
:1052D00061390008EC000020D8000020D000002038
:1052E0002E2E5C4672656552544F535C7461736B2D
:1052F000732E63004572726F723A25732C25640D0C
:105300000A00000002480068401C0149086070471C
:10531000F400002010B51B48006818B101201A499C
:1053200008602DE000201849086018480068B0FAAD
:1053300080F0C0F11F0404EB8400154951F82000EF
:1053400008B1012000E0002028B940F6F72211A1A1
:1053500015A0FDF771FB04EB84010D4A02EB8100FF
:1053600041684968416000F1080142688A4202D1FF
:105370004168496841604168C9680F4A116000BFCF
:1053800010BD0000F4000020E0000020D400002048
:10539000F85100202E2E5C4672656552544F535CC6
:1053A0007461736B732E63004572726F723A25736A
:1053B0002C25640D0A000000BC0000201CB522480A
:1053C000014609780191FF210246117001460978D2
:1053D00000919DF8001001F050011C4A1170072146
:1053E0001B4A116009E01A490968491E184A1160F0
:1053F0009DF800104906090E00919DF8001001F07B
:1054000080018029EFD0124909680902104A116011
:105410001146098801F4E06111600B4A019911708D
:105420000C48006840F470000A49086008460068AB
:1054300040F070400860FFF769FC002006490860F2
:10544000FAF792FE00201CBD00E400E0B40000204A
:10545000B800002020ED00E0B000002010B500BF33
:10546000502080F31188BFF34F8FBFF36F8F00BFC1
:1054700000F084FB18B14FF080500449086000BF71
:10548000002080F3118800BF10BD000004ED00E093
:105490002DE9F84305460E4690460DB1012000E087
:1054A000002028B94FF4C4720DA112A0FDF7C4FA70
:1054B0000EB9002701E005FB06F707F15400FEF7DF
:1054C0000FFE044644B104F1540943464A463146AE
:1054D00028460094FEF758FA2046BDE8F8830000FD
:1054E0002E2E5C4672656552544F535C717565751E
:1054F000652E63004572726F723A25732C25640D18
:105500000A0000002DE9FF4782B005460E461F46FF
:105510004FF0000A2C462CB940F2DC4261A166A093
:10552000FDF78AFA0EB9206C08B9012000E00020CE
:1055300028B940F2DD425BA15FA0FDF77DFA00F0E3
:1055400007FB08B9049808B9012000E0002028B939
:105550004FF49C6253A158A0FDF76EFA00BFFFF70D
:10556000FDFAD4F83890B9F1000F3DD0D4F80C8092
:1055700031462046FEF746F9DFB9A9F10100A063E4
:10558000206810B9FEF756FE6060206908B9012056
:1055900000E0002010BB04F1100000F00BFCE8B1AB
:1055A0004FF0805048490860BFF34F8FBFF36F8FB3
:1055B00014E0C4F80C80606A08B9012000E0002003
:1055C00060B904F1240000F0F5FB38B14FF08050D1
:1055D0003D490860BFF34F8FBFF36F8FFFF702FBAA
:1055E000012006B0BDE8F087049818B9FFF7FAFA71
:1055F0000020F6E7BAF1000F04D16846FFF706FE77
:105600004FF0010AFFF7EEFAFFF77CFEFFF7A6FA6C
:1056100094F94400401C10B9002084F8440094F927
:105620004500401C10B9002084F84500FFF7DAFA65
:1056300004A9684600F00CFA40BB2046FEF7B8FA11
:10564000F0B1206830B9FFF789FA6068FFF786FD8E
:10565000FFF7C8FA04F124000499FFF727FD20465C
:10566000FEF7F5FC00F000FC00287FF478AF4FF067
:10567000805015490860BFF34F8FBFF36F8F6EE7FF
:105680002046FEF7E4FC00F0EFFB68E72046FEF75B
:10569000DEFC00F0E9FB2046FEF78AFA0028EED097
:1056A00000209EE72E2E5C4672656552544F535C77
:1056B00071756575652E63004572726F723A257358
:1056C0002C25640D0A00000004ED00E070B50546CD
:1056D0000E462C462CB940F21B121EA122A0FDF74B
:1056E000ABF9FFF73BFAD4E90F12206801FB020087
:1056F00060600020A0632068A060E06B401E226C08
:10570000216800FB0210E060FF2084F8440084F868
:1057100045009EB9206908B9012000E00020A8B921
:1057200004F1100000F046FB80B14FF080501249A8
:105730000860BFF34F8FBFF36F8F07E004F11000D5
:10574000FFF7D6F904F12400FFF7D2F9FFF74AFA80
:10575000012070BD2E2E5C4672656552544F535C1D
:1057600071756575652E63004572726F723A2573A7
:105770002C25640D0A00000004ED00E02DE9FF4334
:1057800083B0064688461D464FF0000934462CB9C2
:1057900040F2D92260A165A0FDF74EF9B8F1000FE3
:1057A00001D1206C08B9012000E0002028B940F2A6
:1057B000DA2259A15DA0FDF73FF9022D02D1E06B7D
:1057C000012801D1012000E0002028B940F2DB22AD
:1057D00051A156A0FDF730F900F0BAF908B90598C3
:1057E00008B9012000E0002028B940F2DE224AA1D9
:1057F0004EA0FDF721F900BFFFF7B0F9A06BE16BF8
:10580000884201D3022D38D12A4641462046FEF770
:105810000EF80746A06C68B129462046FEF7E4F969
:1058200028B34FF0805045490860BFF34F8FBFF356
:105830006F8F1CE0606A08B9012000E0002068B9A1
:1058400004F1240000F0B6FA88B14FF080503B49D3
:105850000860BFF34F8FBFF36F8F08E03FB14FF089
:10586000805036490860BFF34F8FBFF36F8FFFF74B
:10587000B9F9012007B0BDE8F083059818B9FFF722
:10588000B1F90020F6E7B9F1000F04D101A8FFF744
:10589000BDFC4FF00109FFF7A5F9FFF733FDFFF756
:1058A0005DF994F94400401C10B9002084F84400CC
:1058B00094F94500401C10B9002084F84500FFF71A
:1058C00091F905A901A800F0C3F8F0B92046FEF748
:1058D0007CF9A0B104F110000599FFF7E7FB204621
:1058E000FEF7B5FB00F0C0FA002885D14FF08050DC
:1058F00012490860BFF34F8FBFF36F8F7CE72046DC
:10590000FEF7A5FB00F0B0FA76E72046FEF79FFB16
:1059100000F0AAFA0020ADE72E2E5C4672656552B3
:10592000544F535C71756575652E63004572726FD7
:10593000723A25732C25640D0A00000004ED00E086
:105940002DE9F05F80468A4615461E4644462CB92E
:1059500040F29F3235A13AA0FDF76EF8BAF1000F80
:1059600001D1206C08B9012000E0002028B94FF4D3
:1059700068722EA132A0FDF75FF8022E02D1E06B13
:10598000012801D1012000E0002028B940F2A13215
:1059900026A12BA0FDF750F8FFF7C8F900BF502152
:1059A000EFF3118081F31188BFF34F8FBFF36F8F37
:1059B00000BF0746A06BE16B884201D3022E2BD1BA
:1059C00094F945B0324651462046FDF730FF0BF1C1
:1059D0000100C8B9A06C40B131462046FEF704F979
:1059E000B8B1B5B10120286013E0606A08B90120A0
:1059F00000E0002068B904F1240000F0DBF940B1B8
:105A00003DB10120286004E00BF1010040B284F8B0
:105A100045004FF0010901E04FF0000900BF87F396
:105A2000118800BF4846BDE8F09F00002E2E5C465E
:105A300072656552544F535C71756575652E6300D0
:105A40004572726F723A25732C25640D0A000000AE
:105A50002DE9F04104460D462CB940F6CC3219A18F
:105A60001DA0FCF7E9FF2DB940F6CD3215A11AA013
:105A7000FCF7E2FFFFF772F81B4807682868401C34
:105A800008B9002619E0194920680968884204D03D
:105A90006068B84201D801260FE06068381A2968AA
:105AA000884209D228686168791A401A286020461D
:105AB000FFF7ACFB002600E00126FFF793F8304625
:105AC000BDE8F0812E2E5C4672656552544F535CE2
:105AD0007461736B732E63004572726F723A257333
